:020000040800F2
:1000000048070020CD010008E90300089503000817
:10001000E5030008750200089B09000800000000C5
:100020000000000000000000000000003D07000884
:1000300079020008000000001907000851080008B4
:10004000E7010008E7010008E7010008E7010008F0
:10005000E7010008E7010008E7010008E7010008E0
:10006000E7010008E7010008E7010008E7010008D0
:10007000E7010008E7010008E7010008E7010008C0
:10008000E7010008E7010008E7010008E7010008B0
:10009000E7010008E7010008E7010008E7010008A0
:1000A000E7010008E7010008E7010008E701000890
:1000B000E7010008E7010008E7010008E701000880
:1000C000E7010008E7010008E7010008E701000870
:1000D000E7010008B5080008E7010008E70100088B
:1000E000E7010008E7010008E7010008E701000850
:1000F000E7010008E7010008E7010008E701000840
:10010000E7010008E7010008E7010008E70100082F
:10011000E7010008E7010008E7010008E70100081F
:10012000E7010008E7010008E7010008E70100080F
:1001300000F002F800F03AF80AA090E8000C8244BF
:100140008344AAF10107DA4501D100F02FF8AFF29C
:10015000090EBAE80F0013F0010F18BFFB1A43F0A5
:10016000010318476411000084110000103A24BFF5
:1001700078C878C1FAD8520724BF30C830C144BF0C
:1001800004680C607047000000230024002500264E
:10019000103A28BF78C1FBD8520728BF30C148BFEA
:1001A0000B6070471FB51FBD10B510BD00F033F8D0
:1001B0001146FFF7F7FF00F063FC00F051F803B4BD
:1001C000FFF7F2FF03BC00F0EAFB0000094880479C
:1001D00009480047FEE7FEE7FEE7FEE7FEE7FEE729
:1001E000FEE7FEE7FEE7FEE704480549054A064B41
:1001F0007047000055080008310100084801002040
:10020000480700204803002048030020704770473B
:10021000704770477047754600F028F8AE460500F5
:100220006946534620F00700854618B020B5FFF711
:10023000DBFFBDE820404FF000064FF000074FF015
:1002400000084FF0000B21F00701AC46ACE8C009F4
:10025000ACE8C009ACE8C009ACE8C0098D467047FD
:100260000446AFF300802046FFF7A9FF004870471F
:10027000E800002000BFFEE770472DE9F04102468C
:1002800000250026002000230024002791F803C049
:100290000CF00F0591F803C00CF0100CBCF1000F2E
:1002A00003D091F802C04CEA050591F800C0BCF1FA
:1002B000000F31D0146800202BE04FF0010C0CFA35
:1002C00000F3B1F800C00CEA03069E4220D183007F
:1002D0004FF00F0C0CFA03F7BC4305FA03FC4CEA91
:1002E000040491F803C0BCF1280F06D14FF0010CB3
:1002F0000CFA00FCC2F814C00AE091F803C0BCF18B
:10030000480F05D14FF0010C0CFA00FCC2F810C0E8
:10031000401C0828D1D31460B1F800C0BCF1FF0F15
:1003200034DD546800202EE000F1080C4FF0010885
:1003300008FA0CF3B1F800C00CEA03069E4221D182
:1003400083004FF00F0C0CFA03F7BC4305FA03FCD3
:100350004CEA040491F803C0BCF1280F05D100F168
:10036000080C08FA0CF8C2F8148091F803C0BCF12C
:10037000480F07D100F1080C4FF0010808FA0CF8FB
:10038000C2F81080401C0828CED35460BDE8F0812C
:100390000161704700BFFEE708B50121482000F069
:1003A000BDF92020ADF8000010208DF803000320D7
:1003B0008DF8020069460948FFF75FFF20210748D2
:1003C000FFF7E6FF2020ADF8000069460448FFF77C
:1003D00054FF20210248FFF7DBFF08BD000C01405D
:1003E0000018014000BFFEE77047000002490143CA
:1003F000024A1160704700000000FA050CED00E0B1
:1004000070B50646002415E004F1B001C8B200F052
:100410002FF9012000F02CF9102000F029F9002517
:1004200004E0304600F034F9681CC5B2802DF8DBDA
:10043000601CC4B2082CE7DB70BD000008B50121C8
:10044000082000F06BF9C020ADF8000010208DF8F6
:10045000030003208DF8020069460448FFF70DFFF2
:10046000C0210248FFF794FF08BD0000000C0140C6
:1004700010B501200A49086000F0DCFA01200949A2
:10048000C1F8980100F0D6FA002005490860012063
:1004900000F0D0FA00200349C1F8980110BD000017
:1004A0009C8121420080214210B500200A49086049
:1004B000012000F0BFFA00200849C1F8980101208E
:1004C00000F0B8FA01200449086000F0B3FA0120F6
:1004D0000249C1F8980110BD9C812142008021424F
:1004E00010B5FFF7ABFF642000F07EFAAE2000F0FD
:1004F000BFF8002000F0BCF8102000F0B9F8402050
:1005000000F0B6F8812000F0B3F8C42000F0B0F895
:10051000A12000F0ADF8C82000F0AAF8A62000F055
:10052000A7F8A82000F0A4F83F2000F0A1F8D320FD
:1005300000F09EF8002000F09BF8D52000F098F81D
:10054000802000F095F8D92000F092F8F12000F01A
:100550008FF8DA2000F08CF8122000F089F8DB2008
:1005600000F086F8402000F083F8202000F080F8AA
:10057000022000F07DF88D2000F07AF8142000F0C1
:1005800077F8A42000F074F8A62000F071F8AF20EE
:1005900000F06EF80020FFF733FF0021084600F05E
:1005A00053F810BD2DE9F05F0746884691469B46FB
:1005B00000250024A246BBF1000F01D1002600E077
:1005C000FF2638E019F80A002038C5B2782F04DD7C
:1005D000002708F1010000F0FF084146384600F00E
:1005E00033F8002409E004EB0511164A515C81EA56
:1005F000060000F04DF8601CC4B2082CF3DB08F1D3
:100600000100C1B2384600F01FF800240AE004EBF4
:10061000051108310B4A515C81EA060000F038F8F8
:10062000601CC4B2082CF2DB07F10800C7B20AF163
:10063000010000F0FF0A19F80A000028C2D1BDE845
:10064000F09F0000D80C000870B504460D4605F177
:10065000B001C8B200F00CF8102141EA141000F00B
:1006600007F804F00F0141F0010000F001F870BD3F
:1006700010B50446FFF7FCFE782000F019F80020C2
:1006800000F016F8204600F013F8FFF70DFF10BD3C
:1006900010B50446FFF7ECFE782000F009F8402082
:1006A00000F006F8204600F003F8FFF7FDFE10BD4D
:1006B00070B5044600251DE004F0800018B101204B
:1006C0001349086002E0002011490860012000F091
:1006D000B1F901200E49091F086000F0ABF90020B4
:1006E0000C49C1F89801012000F0A4F96006040E3D
:1006F000681CC5B2082DDFDB01200549091F086011
:1007000000F098F900200349C1F8980170BD00007D
:100710009C812142008021427047000029B1064A95
:1007200092690243044B9A6104E0034A926982434E
:10073000014B9A617047000000100240704710B5ED
:1007400000F002F810BD00000CB5002001900090F0
:100750003348006840F480303149086000BF3048B9
:10076000006800F4003000900198401C019000984F
:1007700018B90198B0F5A06FF1D12948006800F4CC
:10078000003010B10120009001E00020009000989E
:10079000012843D12348006840F010002149086037
:1007A0000846006820F0030008600846006840F032
:1007B000020008601A4840681949486008464068C5
:1007C00048600846406840F48060486008464068D9
:1007D00020F47C1048600846406840F4E810486007
:1007E0000846006840F08070086000BF0C48006850
:1007F00000F000700028F9D00948406820F003009C
:10080000074948600846406840F00200486000BF61
:100810000348406800F00C000828F9D10CBD000026
:100820000010024000200240042808D14FF0E021CF
:10083000096941F004014FF0E022116107E04FF037
:10084000E021096921F004014FF0E02211617047B5
:100850007047000010B51348006840F001001149CE
:10086000086008464068104908400E49486008463C
:1008700000680E4908400B4908600846006820F4EB
:10088000802008600846406820F4FE0048604FF46D
:100890001F008860FFF753FF4FF0006004490860B5
:1008A00010BD0000001002400000FFF8FFFFF6FE40
:1008B00008ED00E010B540F225511D4800F03EF86B
:1008C00010B31B4800F064F8C4B21A48008800F462
:1008D0000040C8B91748008800F4804060B10A2C75
:1008E00003D000201349088020E01248008840F41B
:1008F00000401049088019E00D2C06D10D480088F1
:1009000040F480400B49088010E00A480088C0F39A
:100910000D0009490C5407480088401C054908800F
:1009200008460088C72801DD0020088010BD0000AF
:10093000003801401C0000202000002070B5024655
:10094000002400230025002040F66A16B14200D1A1
:1009500000BFC1F3421501F01F03012606FA03F39D
:10096000012D02D19689334006E0022D02D1168A6C
:10097000334001E0968A33400C12012606FA04F453
:100980001688344013B10CB1012000E0002070BD86
:1009900001468888C0F30800704700BFFEE70146A3
:1009A00000BF704710B56FF00400FFF73DFF0A4825
:1009B00000680A49B0FBF1F0094908700846007860
:1009C00000EB4001C1EBC0104FF6FF7101EAC0001F
:1009D0000449088010BD00000000002000127A00C9
:1009E00014000020160000200146114A12884A43D4
:1009F0004FF0E0235A6100229A611A46126942F0D0
:100A000001021A6100BF4FF0E022106900F00102FC
:100A10001AB100F48032002AF5D04FF0E0221269BA
:100A200022F001024FF0E0231A6100229A61704720
:100A3000160000200146114A12784A434FF0E02385
:100A40005A6100229A611A46126942F001021A6143
:100A500000BF4FF0E022106900F001021AB100F46B
:100A60008032002AF5D04FF0E022126922F0010214
:100A70004FF0E0231A6100229A61704714000020B1
:100A8000FFF790FFFFF788FCFFF7D8FCFFF728FD82
:100A90004FF4A060FFF7AAFC05E0012302A219466B
:100AA0000020FFF77FFDF8E748454C4C4F00000061
:100AB0000000000000000000002F00000000070000
:100AC000070000147F147F1400242A7F2A1200627A
:100AD0006408132300364955225000000503000026
:100AE00000001C224100000041221C000014083EAE
:100AF00008140008083E0808000000A06000000874
:100B000008080808000060600000002010080402C7
:100B1000003E5149453E0000427F40000042615185
:100B20004946002141454B31001814127F1000271F
:100B300045454539003C4A494930000171090503E2
:100B400000364949493600064949291E0000363613
:100B50000000000056360000000814224100001476
:100B60001414141400004122140800020151090653
:100B700000324959513E007C1211127C007F4949D4
:100B80004936003E41414122007F4141221C007F05
:100B900049494941007F09090901003E4149497A13
:100BA000007F0808087F0000417F4100002040418D
:100BB0003F01007F08142241007F40404040007FF9
:100BC000020C027F007F0408107F003E4141413E3D
:100BD000007F09090906003E4151215E007F091985
:100BE00029460046494949310001017F0101003F82
:100BF0004040403F001F2040201F003F4038403F02
:100C00000063140814630007087008070061514965
:100C1000454300007F41410000552A552A550000F8
:100C200041417F0000040201020400404040404076
:100C3000000001020400002054545478007F48440E
:100C4000443800384444442000384444487F003845
:100C50005454541800087E0901020018A4A4A47C6E
:100C6000007F080404780000447D40000040808438
:100C70007D00007F102844000000417F4000007C80
:100C800004180478007C080404780038444444388C
:100C900000FC242424180018242418FC007C0804D8
:100CA000040800485454542000043F444020003CB1
:100CB0004040207C001C2040201C003C4030403C38
:100CC000004428102844001CA0A0A07C00446454C8
:100CD0004C4414141414141400000000000000000C
:100CE0000000000000000000000000F8000000000C
:100CF000000000333000000000100C06100C06004D
:100D0000000000000000000040C07840C0784000B3
:100D1000043F04043F040400007088FC0830000015
:100D2000001820FF211E0000F008F000E01800006D
:100D300000211C031E211E0000F008887000000026
:100D40001E2123241927211010160E000000000078
:100D50000000000000000000000000E01804020095
:100D6000000000071820400000020418E000000006
:100D70000040201807000000404080F08040400004
:100D80000202010F01020200000000F0000000005A
:100D90000101011F0101010000000000000000002E
:100DA00080B07000000000000000000000000000A3
:100DB000000101010101010100000000000000002C
:100DC00000303000000000000000000080601804C7
:100DD000006018060100000000E010080810E000A4
:100DE000000F102020100F00001010F8000000006D
:100DF0000020203F202000000070080808887000B4
:100E00000030282422213000003008888848300033
:100E10000018202020110E000000C02010F8000053
:100E200000070424243F240000F8088888080800EC
:100E30000019212020110E0000E010888818000001
:100E4000000F112020110E0000380808C8380800D3
:100E50000000003F00000000007088080888700053
:100E6000001C222121221C0000E010080810E000D4
:100E70000000312222110F00000000C0C00000005D
:100E80000000003030000000000000800000000082
:100E9000000080600000000000008040201008007A
:100EA0000001020408102000404040404040400043
:100EB000040404040404040000081020408000001E
:100EC0000020100804020100007048080808F00023
:100ED0000000003036010000C030C828E810E000F3
:100EE0000718272423140B000000C038E00000007E
:100EF000203C23020227382008F8888888700000E8
:100F0000203F202020110E00C030080808083800BB
:100F1000071820202010080008F808080810E00032
:100F2000203F202020100F0008F88888E8081000D3
:100F3000203F20202320180008F88888E8081000A7
:100F4000203F200003000000C030080808380000DF
:100F500007182020221E020008F808000008F808E0
:100F6000203F210101213F20000808F80808000067
:100F70000020203F2020000000000808F80808009A
:100F8000C08080807F00000008F888C02818080012
:100F9000203F20012638200008F80800000000004B
:100FA000203F20202020300008F8F800F8F8080042
:100FB000203F003F003F200008F830C00008F8083C
:100FC000203F200007183F00E01008080810E0004C
:100FD0000F10202020100F0008F808080808F00063
:100FE000203F210101010000E01008080810E00086
:100FF0000F18242438504F0008F88888888870001B
:10100000203F2000030C30200070880808083800BA
:101010000038202121221C00180808F808081800B0
:101020000000203F2000000008F808000008F80831
:10103000001F202020201F000878880000C83808E2
:10104000000007380E010000F80800F80008F8005A
:10105000033C0700073C03000818688080681808F4
:1010600020302C03032C30200838C800C838080072
:101070000000203F2000000010080808C8380800C1
:101080002038262120201800000000FE0202020065
:101090000000007F40404000000C30C00000000015
:1010A000000000010638C00000020202FE0000003D
:1010B000004040407F0000000000040202020400E3
:1010C0000000000000000000000000000000000020
:1010D0008080808080808080000202040000000008
:1010E0000000000000000000000080808080000000
:1010F0000019242222223F2008F8008080000000EE
:10110000003F112020110E000000008080800000B0
:10111000000E112020201100000000808088F800BF
:10112000000E112020103F200000808080800000F1
:10113000001F222222221300008080F08888881855
:101140000020203F20200000000080808080800060
:10115000006B94949493600008F8008080800000F5
:10116000203F210000203F200080989800000000D0
:101170000020203F20200000000000809898000000
:1011800000C08080807F000008F800008080800020
:10119000203F24022D302000000808F80000000045
:1011A0000020203F20200000808080808080800000
:1011B000203F20003F20003F808000808080000092
:1011C000203F210000203F20000080808080000020
:1011D000001F202020201F00808000808000000051
:1011E00080FFA12020110E00000000808080800080
:1011F000000E112020A0FF80808080008080800071
:1012000020203F212000010000008080808080009D
:101210000033242424241900008080E08080000012
:101220000000001F2020000080800000008080005F
:10123000001F202020103F208080800000808080C0
:1012400000010E3008060100808000800080808050
:101250000F300C030C300F00008080008080800075
:101260000020312E0E3120008080800000808080A0
:1012700080818E7018060100008080808080800050
:101280000021302C2221300000000000807C02026E
:1012900000000000003F404000000000FF00000090
:1012A00000000000FF0000000002027C800000003F
:1012B0000040403F0000000000060101020204045B
:1012C0000000000000000000E812000800000020FC
:1012D000200000006C010008081300082000002016
:1012E000280700008801000800A24A04000000004E
:1012F00000000000010203040607080900000000C6
:081300000000000000000000E5
:04000005080001CD21
:00000001FF
